{
  "contractName": "kyc",
  "abi": [
    {
      "constant": false,
      "inputs": [
        {
          "name": "Uname",
          "type": "string"
        },
        {
          "name": "bankAddress",
          "type": "address"
        }
      ],
      "name": "ifAllowed",
      "outputs": [
        {
          "name": "",
          "type": "bool"
        }
      ],
      "payable": true,
      "stateMutability": "payable",
      "type": "function",
      "signature": "0x1cfb7c9a"
    },
    {
      "constant": false,
      "inputs": [
        {
          "name": "Uname",
          "type": "string"
        },
        {
          "name": "ind",
          "type": "uint256"
        }
      ],
      "name": "getBankRequests",
      "outputs": [
        {
          "name": "",
          "type": "address"
        }
      ],
      "payable": true,
      "stateMutability": "payable",
      "type": "function",
      "signature": "0xc71029e1"
    },
    {
      "constant": false,
      "inputs": [
        {
          "name": "Uname",
          "type": "string"
        },
        {
          "name": "bankAddress",
          "type": "address"
        }
      ],
      "name": "addRequest",
      "outputs": [],
      "payable": true,
      "stateMutability": "payable",
      "type": "function",
      "signature": "0x8873704c"
    },
    {
      "constant": false,
      "inputs": [
        {
          "name": "Uname",
          "type": "string"
        },
        {
          "name": "bankAddress",
          "type": "address"
        },
        {
          "name": "ifallowed",
          "type": "bool"
        }
      ],
      "name": "allowBank",
      "outputs": [],
      "payable": true,
      "stateMutability": "payable",
      "type": "function",
      "signature": "0x39b83b68"
    },
    {
      "constant": false,
      "inputs": [],
      "name": "isPartOfOrg",
      "outputs": [
        {
          "name": "",
          "type": "bool"
        }
      ],
      "payable": true,
      "stateMutability": "payable",
      "type": "function",
      "signature": "0xd06760da"
    },
    {
      "constant": false,
      "inputs": [
        {
          "name": "uname",
          "type": "string"
        },
        {
          "name": "eth",
          "type": "address"
        },
        {
          "name": "regNum",
          "type": "string"
        }
      ],
      "name": "addBank",
      "outputs": [
        {
          "name": "",
          "type": "uint256"
        }
      ],
      "payable": true,
      "stateMutability": "payable",
      "type": "function",
      "signature": "0xccfa8e71"
    },
    {
      "constant": false,
      "inputs": [
        {
          "name": "eth",
          "type": "address"
        }
      ],
      "name": "removeBank",
      "outputs": [
        {
          "name": "",
          "type": "uint256"
        }
      ],
      "payable": true,
      "stateMutability": "payable",
      "type": "function",
      "signature": "0x9649650c"
    },
    {
      "constant": false,
      "inputs": [
        {
          "name": "Uname",
          "type": "string"
        },
        {
          "name": "DataHash",
          "type": "string"
        }
      ],
      "name": "addCustomer",
      "outputs": [
        {
          "name": "",
          "type": "uint256"
        }
      ],
      "payable": true,
      "stateMutability": "payable",
      "type": "function",
      "signature": "0x3190abc0"
    },
    {
      "constant": false,
      "inputs": [
        {
          "name": "Uname",
          "type": "string"
        }
      ],
      "name": "removeCustomer",
      "outputs": [
        {
          "name": "",
          "type": "uint256"
        }
      ],
      "payable": true,
      "stateMutability": "payable",
      "type": "function",
      "signature": "0xfc55ea9d"
    },
    {
      "constant": false,
      "inputs": [
        {
          "name": "Uname",
          "type": "string"
        },
        {
          "name": "DataHash",
          "type": "string"
        }
      ],
      "name": "modifyCustomer",
      "outputs": [
        {
          "name": "",
          "type": "uint256"
        }
      ],
      "payable": true,
      "stateMutability": "payable",
      "type": "function",
      "signature": "0xf72860ca"
    },
    {
      "constant": false,
      "inputs": [
        {
          "name": "Uname",
          "type": "string"
        }
      ],
      "name": "viewCustomer",
      "outputs": [
        {
          "name": "",
          "type": "string"
        }
      ],
      "payable": true,
      "stateMutability": "payable",
      "type": "function",
      "signature": "0x107925bb"
    },
    {
      "constant": false,
      "inputs": [
        {
          "name": "Uname",
          "type": "string"
        },
        {
          "name": "ifIncrease",
          "type": "bool"
        }
      ],
      "name": "updateRatingCustomer",
      "outputs": [
        {
          "name": "",
          "type": "uint256"
        }
      ],
      "payable": true,
      "stateMutability": "payable",
      "type": "function",
      "signature": "0xbbd4edb1"
    },
    {
      "constant": false,
      "inputs": [
        {
          "name": "bankAddress",
          "type": "address"
        },
        {
          "name": "ifAdded",
          "type": "bool"
        }
      ],
      "name": "updateRating",
      "outputs": [
        {
          "name": "",
          "type": "uint256"
        }
      ],
      "payable": true,
      "stateMutability": "payable",
      "type": "function",
      "signature": "0x7d2f42c3"
    },
    {
      "constant": false,
      "inputs": [
        {
          "name": "Uname",
          "type": "string"
        },
        {
          "name": "password",
          "type": "address"
        }
      ],
      "name": "checkBank",
      "outputs": [
        {
          "name": "",
          "type": "string"
        }
      ],
      "payable": true,
      "stateMutability": "payable",
      "type": "function",
      "signature": "0xc17d8720"
    },
    {
      "constant": false,
      "inputs": [
        {
          "name": "Uname",
          "type": "string"
        },
        {
          "name": "password",
          "type": "string"
        }
      ],
      "name": "checkCustomer",
      "outputs": [
        {
          "name": "",
          "type": "bool"
        }
      ],
      "payable": true,
      "stateMutability": "payable",
      "type": "function",
      "signature": "0x4b726f61"
    },
    {
      "constant": false,
      "inputs": [
        {
          "name": "Uname",
          "type": "string"
        },
        {
          "name": "password",
          "type": "string"
        }
      ],
      "name": "setPassword",
      "outputs": [
        {
          "name": "",
          "type": "bool"
        }
      ],
      "payable": true,
      "stateMutability": "payable",
      "type": "function",
      "signature": "0xca386496"
    },
    {
      "constant": false,
      "inputs": [
        {
          "name": "ethAcc",
          "type": "address"
        }
      ],
      "name": "getBankName",
      "outputs": [
        {
          "name": "",
          "type": "string"
        }
      ],
      "payable": true,
      "stateMutability": "payable",
      "type": "function",
      "signature": "0x01da7b31"
    },
    {
      "constant": false,
      "inputs": [
        {
          "name": "uname",
          "type": "string"
        }
      ],
      "name": "getBankEth",
      "outputs": [
        {
          "name": "",
          "type": "address"
        }
      ],
      "payable": true,
      "stateMutability": "payable",
      "type": "function",
      "signature": "0x5b3de1c8"
    },
    {
      "constant": false,
      "inputs": [
        {
          "name": "Uname",
          "type": "string"
        }
      ],
      "name": "getCustomerBankName",
      "outputs": [
        {
          "name": "",
          "type": "string"
        }
      ],
      "payable": true,
      "stateMutability": "payable",
      "type": "function",
      "signature": "0xf9dc0793"
    },
    {
      "constant": false,
      "inputs": [
        {
          "name": "ethAcc",
          "type": "address"
        }
      ],
      "name": "getBankReg",
      "outputs": [
        {
          "name": "",
          "type": "string"
        }
      ],
      "payable": true,
      "stateMutability": "payable",
      "type": "function",
      "signature": "0x9ac3fce6"
    },
    {
      "constant": false,
      "inputs": [
        {
          "name": "ethAcc",
          "type": "address"
        }
      ],
      "name": "getBankKYC",
      "outputs": [
        {
          "name": "",
          "type": "uint256"
        }
      ],
      "payable": true,
      "stateMutability": "payable",
      "type": "function",
      "signature": "0x4ec2b417"
    },
    {
      "constant": false,
      "inputs": [
        {
          "name": "ethAcc",
          "type": "address"
        }
      ],
      "name": "getBankRating",
      "outputs": [
        {
          "name": "",
          "type": "uint256"
        }
      ],
      "payable": true,
      "stateMutability": "payable",
      "type": "function",
      "signature": "0xb8144a72"
    },
    {
      "constant": false,
      "inputs": [
        {
          "name": "Uname",
          "type": "string"
        }
      ],
      "name": "getCustomerBankRating",
      "outputs": [
        {
          "name": "",
          "type": "uint256"
        }
      ],
      "payable": true,
      "stateMutability": "payable",
      "type": "function",
      "signature": "0xe979bac1"
    },
    {
      "constant": false,
      "inputs": [
        {
          "name": "Uname",
          "type": "string"
        }
      ],
      "name": "getCustomerRating",
      "outputs": [
        {
          "name": "",
          "type": "uint256"
        }
      ],
      "payable": true,
      "stateMutability": "payable",
      "type": "function",
      "signature": "0x8eafe0f0"
    }
  ],
  "bytecode": "0x608060405234801561001057600080fd5b50613c40806100206000396000f3fe60806040526004361061013e576000357c0100000000000000000000000000000000000000000000000000000000900463ffffffff16806301da7b3114610143578063107925bb146102005780631cfb7c9a146103345780633190abc01461042757806339b83b681461058d5780634b726f61146106745780634ec2b417146107de5780635b3de1c8146108365780637d2f42c3146109315780638873704c146109955780638eafe0f014610a705780639649650c14610b3f5780639ac3fce614610b97578063b8144a7214610c54578063bbd4edb114610cac578063c17d872014610d87578063c71029e114610edb578063ca38649614610fe0578063ccfa8e711461114a578063d06760da146112d0578063e979bac1146112f2578063f72860ca146113c1578063f9dc079314611527578063fc55ea9d1461165b575b600080fd5b6101856004803603602081101561015957600080fd5b81019080803573ffffffffffffffffffffffffffffffffffffffff16906020019092919050505061172a565b6040518080602001828103825283818151815260200191508051906020019080838360005b838110156101c55780820151818401526020810190506101aa565b50505050905090810190601f1680156101f25780820380516001836020036101000a031916815260200191505b509250505060405180910390f35b6102b96004803603602081101561021657600080fd5b810190808035906020019064010000000081111561023357600080fd5b82018360208201111561024557600080fd5b8035906020019184600183028401116401000000008311171561026757600080fd5b91908080601f016020809104026020016040519081016040528093929190818152602001838380828437600081840152601f19601f8201169050808301925050505050505091929192905050506118be565b6040518080602001828103825283818151815260200191508051906020019080838360005b838110156102f95780820151818401526020810190506102de565b50505050905090810190601f1680156103265780820380516001836020036101000a031916815260200191505b509250505060405180910390f35b61040d6004803603604081101561034a57600080fd5b810190808035906020019064010000000081111561036757600080fd5b82018360208201111561037957600080fd5b8035906020019184600183028401116401000000008311171561039b57600080fd5b91908080601f016020809104026020016040519081016040528093929190818152602001838380828437600081840152601f19601f820116905080830192505050505050509192919290803573ffffffffffffffffffffffffffffffffffffffff169060200190929190505050611a57565b604051808215151515815260200191505060405180910390f35b6105776004803603604081101561043d57600080fd5b810190808035906020019064010000000081111561045a57600080fd5b82018360208201111561046c57600080fd5b8035906020019184600183028401116401000000008311171561048e57600080fd5b91908080601f016020809104026020016040519081016040528093929190818152602001838380828437600081840152601f19601f820116905080830192505050505050509192919290803590602001906401000000008111156104f157600080fd5b82018360208201111561050357600080fd5b8035906020019184600183028401116401000000008311171561052557600080fd5b91908080601f016020809104026020016040519081016040528093929190818152602001838380828437600081840152601f19601f820116905080830192505050505050509192919290505050611b68565b6040518082815260200191505060405180910390f35b610672600480360360608110156105a357600080fd5b81019080803590602001906401000000008111156105c057600080fd5b8201836020820111156105d257600080fd5b803590602001918460018302840111640100000000831117156105f457600080fd5b91908080601f016020809104026020016040519081016040528093929190818152602001838380828437600081840152601f19601f820116905080830192505050505050509192919290803573ffffffffffffffffffffffffffffffffffffffff169060200190929190803515159060200190929190505050611d70565b005b6107c46004803603604081101561068a57600080fd5b81019080803590602001906401000000008111156106a757600080fd5b8201836020820111156106b957600080fd5b803590602001918460018302840111640100000000831117156106db57600080fd5b91908080601f016020809104026020016040519081016040528093929190818152602001838380828437600081840152601f19601f8201169050808301925050505050505091929192908035906020019064010000000081111561073e57600080fd5b82018360208201111561075057600080fd5b8035906020019184600183028401116401000000008311171561077257600080fd5b91908080601f016020809104026020016040519081016040528093929190818152602001838380828437600081840152601f19601f820116905080830192505050505050509192919290505050611fb8565b604051808215151515815260200191505060405180910390f35b610820600480360360208110156107f457600080fd5b81019080803573ffffffffffffffffffffffffffffffffffffffff169060200190929190505050612085565b6040518082815260200191505060405180910390f35b6108ef6004803603602081101561084c57600080fd5b810190808035906020019064010000000081111561086957600080fd5b82018360208201111561087b57600080fd5b8035906020019184600183028401116401000000008311171561089d57600080fd5b91908080601f016020809104026020016040519081016040528093929190818152602001838380828437600081840152601f19601f82011690508083019250505050505050919291929050505061214d565b604051808273ffffffffffffffffffffffffffffffffffffffff1673ffffffffffffffffffffffffffffffffffffffff16815260200191505060405180910390f35b61097f6004803603604081101561094757600080fd5b81019080803573ffffffffffffffffffffffffffffffffffffffff169060200190929190803515159060200190929190505050612202565b6040518082815260200191505060405180910390f35b610a6e600480360360408110156109ab57600080fd5b81019080803590602001906401000000008111156109c857600080fd5b8201836020820111156109da57600080fd5b803590602001918460018302840111640100000000831117156109fc57600080fd5b91908080601f016020809104026020016040519081016040528093929190818152602001838380828437600081840152601f19601f820116905080830192505050505050509192919290803573ffffffffffffffffffffffffffffffffffffffff169060200190929190505050612440565b005b610b2960048036036020811015610a8657600080fd5b8101908080359060200190640100000000811115610aa357600080fd5b820183602082011115610ab557600080fd5b80359060200191846001830284011164010000000083111715610ad757600080fd5b91908080601f016020809104026020016040519081016040528093929190818152602001838380828437600081840152601f19601f820116905080830192505050505050509192919290505050612605565b6040518082815260200191505060405180910390f35b610b8160048036036020811015610b5557600080fd5b81019080803573ffffffffffffffffffffffffffffffffffffffff169060200190929190505050612687565b6040518082815260200191505060405180910390f35b610bd960048036036020811015610bad57600080fd5b81019080803573ffffffffffffffffffffffffffffffffffffffff169060200190929190505050612889565b6040518080602001828103825283818151815260200191508051906020019080838360005b83811015610c19578082015181840152602081019050610bfe565b50505050905090810190601f168015610c465780820380516001836020036101000a031916815260200191505b509250505060405180910390f35b610c9660048036036020811015610c6a57600080fd5b81019080803573ffffffffffffffffffffffffffffffffffffffff169060200190929190505050612a1d565b6040518082815260200191505060405180910390f35b610d7160048036036040811015610cc257600080fd5b8101908080359060200190640100000000811115610cdf57600080fd5b820183602082011115610cf157600080fd5b80359060200191846001830284011164010000000083111715610d1357600080fd5b91908080601f016020809104026020016040519081016040528093929190818152602001838380828437600081840152601f19601f820116905080830192505050505050509192919290803515159060200190929190505050612ae5565b6040518082815260200191505060405180910390f35b610e6060048036036040811015610d9d57600080fd5b8101908080359060200190640100000000811115610dba57600080fd5b820183602082011115610dcc57600080fd5b80359060200191846001830284011164010000000083111715610dee57600080fd5b91908080601f016020809104026020016040519081016040528093929190818152602001838380828437600081840152601f19601f820116905080830192505050505050509192919290803573ffffffffffffffffffffffffffffffffffffffff169060200190929190505050612d0d565b6040518080602001828103825283818151815260200191508051906020019080838360005b83811015610ea0578082015181840152602081019050610e85565b50505050905090810190601f168015610ecd5780820380516001836020036101000a031916815260200191505b509250505060405180910390f35b610f9e60048036036040811015610ef157600080fd5b8101908080359060200190640100000000811115610f0e57600080fd5b820183602082011115610f2057600080fd5b80359060200191846001830284011164010000000083111715610f4257600080fd5b91908080601f016020809104026020016040519081016040528093929190818152602001838380828437600081840152601f19601f82011690508083019250505050505050919291929080359060200190929190505050612e50565b604051808273ffffffffffffffffffffffffffffffffffffffff1673ffffffffffffffffffffffffffffffffffffffff16815260200191505060405180910390f35b61113060048036036040811015610ff657600080fd5b810190808035906020019064010000000081111561101357600080fd5b82018360208201111561102557600080fd5b8035906020019184600183028401116401000000008311171561104757600080fd5b91908080601f016020809104026020016040519081016040528093929190818152602001838380828437600081840152601f19601f820116905080830192505050505050509192919290803590602001906401000000008111156110aa57600080fd5b8201836020820111156110bc57600080fd5b803590602001918460018302840111640100000000831117156110de57600080fd5b91908080601f016020809104026020016040519081016040528093929190818152602001838380828437600081840152601f19601f820116905080830192505050505050509192919290505050612f23565b604051808215151515815260200191505060405180910390f35b6112ba6004803603606081101561116057600080fd5b810190808035906020019064010000000081111561117d57600080fd5b82018360208201111561118f57600080fd5b803590602001918460018302840111640100000000831117156111b157600080fd5b91908080601f016020809104026020016040519081016040528093929190818152602001838380828437600081840152601f19601f820116905080830192505050505050509192919290803573ffffffffffffffffffffffffffffffffffffffff1690602001909291908035906020019064010000000081111561123457600080fd5b82018360208201111561124657600080fd5b8035906020019184600183028401116401000000008311171561126857600080fd5b91908080601f016020809104026020016040519081016040528093929190818152602001838380828437600081840152601f19601f820116905080830192505050505050509192919290505050613022565b6040518082815260200191505060405180910390f35b6112d8613165565b604051808215151515815260200191505060405180910390f35b6113ab6004803603602081101561130857600080fd5b810190808035906020019064010000000081111561132557600080fd5b82018360208201111561133757600080fd5b8035906020019184600183028401116401000000008311171561135957600080fd5b91908080601f016020809104026020016040519081016040528093929190818152602001838380828437600081840152601f19601f82011690508083019250505050505050919291929050505061320c565b6040518082815260200191505060405180910390f35b611511600480360360408110156113d757600080fd5b81019080803590602001906401000000008111156113f457600080fd5b82018360208201111561140657600080fd5b8035906020019184600183028401116401000000008311171561142857600080fd5b91908080601f016020809104026020016040519081016040528093929190818152602001838380828437600081840152601f19601f8201169050808301925050505050505091929192908035906020019064010000000081111561148b57600080fd5b82018360208201111561149d57600080fd5b803590602001918460018302840111640100000000831117156114bf57600080fd5b91908080601f016020809104026020016040519081016040528093929190818152602001838380828437600081840152601f19601f8201169050808301925050505050505091929192905050506132b2565b6040518082815260200191505060405180910390f35b6115e06004803603602081101561153d57600080fd5b810190808035906020019064010000000081111561155a57600080fd5b82018360208201111561156c57600080fd5b8035906020019184600183028401116401000000008311171561158e57600080fd5b91908080601f016020809104026020016040519081016040528093929190818152602001838380828437600081840152601f19601f8201169050808301925050505050505091929192905050506133c1565b6040518080602001828103825283818151815260200191508051906020019080838360005b83811015611620578082015181840152602081019050611605565b50505050905090810190601f16801561164d5780820380516001836020036101000a031916815260200191505b509250505060405180910390f35b6117146004803603602081101561167157600080fd5b810190808035906020019064010000000081111561168e57600080fd5b8201836020820111156116a057600080fd5b803590602001918460018302840111640100000000831117156116c257600080fd5b91908080601f016020809104026020016040519081016040528093929190818152602001838380828437600081840152601f19601f820116905080830192505050505050509192919290505050613467565b6040518082815260200191505060405180910390f35b606060008090505b60018054905081101561187f578273ffffffffffffffffffffffffffffffffffffffff1660018281548110151561176557fe5b906000526020600020906005020160010160009054906101000a900473ffffffffffffffffffffffffffffffffffffffff1673ffffffffffffffffffffffffffffffffffffffff161415611874576001818154811015156117c257fe5b90600052602060002090600502016000018054600181600116156101000203166002900480601f0160208091040260200160405190810160405280929190818152602001828054600181600116156101000203166002900480156118675780601f1061183c57610100808354040283529160200191611867565b820191906000526020600020905b81548152906001019060200180831161184a57829003601f168201915b50505050509150506118b9565b806001019050611732565b506040805190810160405280600481526020017f6e756c6c0000000000000000000000000000000000000000000000000000000081525090505b919050565b60606118c8613165565b151561190b576040805190810160405280600e81526020017f4163636573732064656e696564210000000000000000000000000000000000008152509050611a52565b60008090505b600080549050811015611a185761194760008281548110151561193057fe5b90600052602060002090600602016000018461369d565b15611a0d5760008181548110151561195b57fe5b90600052602060002090600602016001018054600181600116156101000203166002900480601f016020809104026020016040519081016040528092919081815260200182805460018160011615610100020316600290048015611a005780601f106119d557610100808354040283529160200191611a00565b820191906000526020600020905b8154815290600101906020018083116119e357829003601f168201915b5050505050915050611a52565b806001019050611911565b506040805190810160405280601f81526020017f437573746f6d6572206e6f7420666f756e6420696e206461746162617365210081525090505b919050565b600080600090505b600280549050811015611b5c57611a95600282815481101515611a7e57fe5b90600052602060002090600202016000018561369d565b8015611b0c57508273ffffffffffffffffffffffffffffffffffffffff16600282815481101515611ac257fe5b906000526020600020906002020160010160009054906101000a900473ffffffffffffffffffffffffffffffffffffffff1673ffffffffffffffffffffffffffffffffffffffff16145b8015611b425750600281815481101515611b2257fe5b906000526020600020906002020160010160149054906101000a900460ff165b15611b51576001915050611b62565b806001019050611a5f565b50600090505b92915050565b6000611b72613165565b1515611b815760079050611d6a565b60008090505b600080549050811015611bd757611bbd600082815481101515611ba657fe5b90600052602060002090600602016000018561369d565b15611bcc576002915050611d6a565b806001019050611b87565b5060008054809190600101611bec9190613824565b5060016000805490501015611c045760019050611d6a565b60c06040519081016040528084815260200183815260200160648152602001600081526020013373ffffffffffffffffffffffffffffffffffffffff1681526020016040805190810160405280600481526020017f6e756c6c000000000000000000000000000000000000000000000000000000008152508152506000600160008054905003815481101515611c9657fe5b90600052602060002090600602016000820151816000019080519060200190611cc0929190613856565b506020820151816001019080519060200190611cdd929190613856565b50604082015181600201556060820151816003015560808201518160040160006101000a81548173ffffffffffffffffffffffffffffffffffffffff021916908373ffffffffffffffffffffffffffffffffffffffff16021790555060a0820151816005019080519060200190611d55929190613856565b50905050611d64336001612202565b50600090505b92915050565b60008090505b600280549050811015611fb157611dac600282815481101515611d9557fe5b90600052602060002090600202016000018561369d565b8015611e2357508273ffffffffffffffffffffffffffffffffffffffff16600282815481101515611dd957fe5b906000526020600020906002020160010160009054906101000a900473ffffffffffffffffffffffffffffffffffffffff1673ffffffffffffffffffffffffffffffffffffffff16145b15611fa6578115611e6c576001600282815481101515611e3f57fe5b906000526020600020906002020160010160146101000a81548160ff021916908315150217905550611fa0565b60008190505b6002808054905003811015611f8857600260018301815481101515611e9357fe5b9060005260206000209060020201600283815481101515611eb057fe5b906000526020600020906002020160008201816000019080546001816001161561010002031660029004611ee59291906138d6565b506001820160009054906101000a900473ffffffffffffffffffffffffffffffffffffffff168160010160006101000a81548173ffffffffffffffffffffffffffffffffffffffff021916908373ffffffffffffffffffffffffffffffffffffffff1602179055506001820160149054906101000a900460ff168160010160146101000a81548160ff021916908315150217905550905050806001019050611e72565b506002805480919060019003611f9e919061395d565b505b50611fb3565b806001019050611d76565b505b505050565b600080600090505b60008054905081101561207957611ff6600082815481101515611fdf57fe5b90600052602060002090600602016000018561369d565b8015612027575061202660008281548110151561200f57fe5b90600052602060002090600602016005018461369d565b5b1561203657600191505061207f565b61205f60008281548110151561204857fe5b90600052602060002090600602016000018561369d565b1561206e57600091505061207f565b806001019050611fc0565b50600090505b92915050565b600080600090505b600180549050811015612142578273ffffffffffffffffffffffffffffffffffffffff166001828154811015156120c057fe5b906000526020600020906005020160010160009054906101000a900473ffffffffffffffffffffffffffffffffffffffff1673ffffffffffffffffffffffffffffffffffffffff1614156121375760018181548110151561211d57fe5b906000526020600020906005020160030154915050612148565b80600101905061208d565b50600090505b919050565b600080600090505b6001805490508110156121e45761218b60018281548110151561217457fe5b90600052602060002090600502016000018461369d565b156121d95760018181548110151561219f57fe5b906000526020600020906005020160010160009054906101000a900473ffffffffffffffffffffffffffffffffffffffff169150506121fd565b806001019050612155565b507314e041521a40e32ed88b22c0f32469f5406d757a90505b919050565b600080600090505b600180549050811015612434578373ffffffffffffffffffffffffffffffffffffffff1660018281548110151561223d57fe5b906000526020600020906005020160010160009054906101000a900473ffffffffffffffffffffffffffffffffffffffff1673ffffffffffffffffffffffffffffffffffffffff161415612429578215612372576001818154811015156122a057fe5b9060005260206000209060050201600301600081548092919060010191905055506001818154811015156122d057fe5b90600052602060002090600502016003015460648115156122ed57fe5b046001828154811015156122fd57fe5b9060005260206000209060050201600201600082825401925050819055506101f460018281548110151561232d57fe5b906000526020600020906005020160020154111561236d576101f460018281548110151561235757fe5b9060005260206000209060050201600201819055505b61241f565b6001808281548110151561238257fe5b9060005260206000209060050201600301540160648115156123a057fe5b046001828154811015156123b057fe5b90600052602060002090600502016002016000828254039250508190555060006001828154811015156123df57fe5b906000526020600020906005020160020154101561241e57600060018281548110151561240857fe5b9060005260206000209060050201600201819055505b5b600091505061243a565b80600101905061220a565b50600190505b92915050565b60008090505b6002805490508110156125095761247c60028281548110151561246557fe5b90600052602060002090600202016000018461369d565b80156124f357508173ffffffffffffffffffffffffffffffffffffffff166002828154811015156124a957fe5b906000526020600020906002020160010160009054906101000a900473ffffffffffffffffffffffffffffffffffffffff1673ffffffffffffffffffffffffffffffffffffffff16145b156124fe5750612601565b806001019050612446565b506002805480919060010161251e919061395d565b506060604051908101604052808381526020018273ffffffffffffffffffffffffffffffffffffffff16815260200160001515815250600260016002805490500381548110151561256b57fe5b90600052602060002090600202016000820151816000019080519060200190612595929190613856565b5060208201518160010160006101000a81548173ffffffffffffffffffffffffffffffffffffffff021916908373ffffffffffffffffffffffffffffffffffffffff16021790555060408201518160010160146101000a81548160ff0219169083151502179055509050505b5050565b600080600090505b60008054905081101561267c5761264360008281548110151561262c57fe5b90600052602060002090600602016000018461369d565b156126715760008181548110151561265757fe5b906000526020600020906006020160020154915050612682565b80600101905061260d565b50600090505b919050565b6000612691613165565b15156126a05760079050612884565b60008090505b60018054905081101561287e578273ffffffffffffffffffffffffffffffffffffffff166001828154811015156126d957fe5b906000526020600020906005020160010160009054906101000a900473ffffffffffffffffffffffffffffffffffffffff1673ffffffffffffffffffffffffffffffffffffffff1614156128735760006001820190505b6001805490508110156128525760018281548110151561274c57fe5b9060005260206000209060050201600180840381548110151561276b57fe5b9060005260206000209060050201600082018160000190805460018160011615610100020316600290046127a09291906138d6565b506001820160009054906101000a900473ffffffffffffffffffffffffffffffffffffffff168160010160006101000a81548173ffffffffffffffffffffffffffffffffffffffff021916908373ffffffffffffffffffffffffffffffffffffffff1602179055506002820154816002015560038201548160030155600482018160040190805460018160011615610100020316600290046128439291906138d6565b50905050806001019050612730565b506001805480919060019003612868919061398f565b506000915050612884565b8060010190506126a6565b50600190505b919050565b606060008090505b6001805490508110156129de578273ffffffffffffffffffffffffffffffffffffffff166001828154811015156128c457fe5b906000526020600020906005020160010160009054906101000a900473ffffffffffffffffffffffffffffffffffffffff1673ffffffffffffffffffffffffffffffffffffffff1614156129d35760018181548110151561292157fe5b90600052602060002090600502016004018054600181600116156101000203166002900480601f0160208091040260200160405190810160405280929190818152602001828054600181600116156101000203166002900480156129c65780601f1061299b576101008083540402835291602001916129c6565b820191906000526020600020905b8154815290600101906020018083116129a957829003601f168201915b5050505050915050612a18565b806001019050612891565b506040805190810160405280600481526020017f6e756c6c0000000000000000000000000000000000000000000000000000000081525090505b919050565b600080600090505b600180549050811015612ada578273ffffffffffffffffffffffffffffffffffffffff16600182815481101515612a5857fe5b906000526020600020906005020160010160009054906101000a900473ffffffffffffffffffffffffffffffffffffffff1673ffffffffffffffffffffffffffffffffffffffff161415612acf57600181815481101515612ab557fe5b906000526020600020906005020160020154915050612ae0565b806001019050612a25565b50600090505b919050565b600080600090505b600080549050811015612d0157612b23600082815481101515612b0c57fe5b90600052602060002090600602016000018561369d565b15612cf6578215612c0f57600081815481101515612b3d57fe5b906000526020600020906006020160030160008154809291906001019190505550600081815481101515612b6d57fe5b9060005260206000209060060201600301546064811515612b8a57fe5b04600082815481101515612b9a57fe5b9060005260206000209060060201600201600082825401925050819055506101f4600082815481101515612bca57fe5b9060005260206000209060060201600201541115612c0a576101f4600082815481101515612bf457fe5b9060005260206000209060060201600201819055505b612cec565b600081815481101515612c1e57fe5b906000526020600020906006020160030160008154809291906001900391905055506001600082815481101515612c5157fe5b906000526020600020906006020160030154016064811515612c6f57fe5b04600082815481101515612c7f57fe5b90600052602060002090600602016002016000828254039250508190555060008082815481101515612cad57fe5b9060005260206000209060060201600201541015612ceb5760008082815481101515612cd557fe5b9060005260206000209060060201600201819055505b5b6000915050612d07565b806001019050612aed565b50600190505b92915050565b606060008090505b600180549050811015612e10578273ffffffffffffffffffffffffffffffffffffffff16600182815481101515612d4857fe5b906000526020600020906005020160010160009054906101000a900473ffffffffffffffffffffffffffffffffffffffff1673ffffffffffffffffffffffffffffffffffffffff16148015612dc25750612dc1600182815481101515612daa57fe5b90600052602060002090600502016000018561369d565b5b15612e05576040805190810160405280600181526020017f3000000000000000000000000000000000000000000000000000000000000000815250915050612e4a565b806001019050612d15565b506040805190810160405280600481526020017f6e756c6c0000000000000000000000000000000000000000000000000000000081525090505b92915050565b6000612e7b600283815481101515612e6457fe5b90600052602060002090600202016000018461369d565b8015612eb8575060001515600283815481101515612e9557fe5b906000526020600020906002020160010160149054906101000a900460ff161515145b15612f0557600282815481101515612ecc57fe5b906000526020600020906002020160010160009054906101000a900473ffffffffffffffffffffffffffffffffffffffff169050612f1d565b7314e041521a40e32ed88b22c0f32469f5406d757a90505b92915050565b600080600090505b60008054905081101561301657612f61600082815481101515612f4a57fe5b90600052602060002090600602016000018561369d565b8015612fc75750612fc6600082815481101515612f7a57fe5b90600052602060002090600602016005016040805190810160405280600481526020017f6e756c6c0000000000000000000000000000000000000000000000000000000081525061369d565b5b1561300b5782600082815481101515612fdc57fe5b906000526020600020906006020160050190805190602001906130009291906139c1565b50600191505061301c565b806001019050612f2b565b50600090505b92915050565b600080600180549050148061303b575061303a613165565b5b156131595760018054809190600101613054919061398f565b5060a0604051908101604052808581526020018473ffffffffffffffffffffffffffffffffffffffff16815260200160c8815260200160008152602001838152506001808080549050038154811015156130aa57fe5b906000526020600020906005020160008201518160000190805190602001906130d4929190613856565b5060208201518160010160006101000a81548173ffffffffffffffffffffffffffffffffffffffff021916908373ffffffffffffffffffffffffffffffffffffffff1602179055506040820151816002015560608201518160030155608082015181600401908051906020019061314c929190613856565b509050506000905061315e565b600790505b9392505050565b600080600090505b600180549050811015613203573373ffffffffffffffffffffffffffffffffffffffff166001828154811015156131a057fe5b906000526020600020906005020160010160009054906101000a900473ffffffffffffffffffffffffffffffffffffffff1673ffffffffffffffffffffffffffffffffffffffff1614156131f8576001915050613209565b80600101905061316d565b50600090505b90565b600080600090505b6000805490508110156132ab5761324a60008281548110151561323357fe5b90600052602060002090600602016000018461369d565b156132a05761329860008281548110151561326157fe5b906000526020600020906006020160040160009054906101000a900473ffffffffffffffffffffffffffffffffffffffff16612a1d565b9150506132ad565b806001019050613214565b505b919050565b60006132bc613165565b15156132cb57600790506133bb565b60008090505b6000805490508110156133b5576133076000828154811015156132f057fe5b90600052602060002090600602016000018561369d565b156133aa578260008281548110151561331c57fe5b906000526020600020906006020160010190805190602001906133409291906139c1565b503360008281548110151561335157fe5b906000526020600020906006020160040160006101000a81548173ffffffffffffffffffffffffffffffffffffffff021916908373ffffffffffffffffffffffffffffffffffffffff16021790555060009150506133bb565b8060010190506132d1565b50600190505b92915050565b606060008090505b600080549050811015613460576133ff6000828154811015156133e857fe5b90600052602060002090600602016000018461369d565b156134555761344d60008281548110151561341657fe5b906000526020600020906006020160040160009054906101000a900473ffffffffffffffffffffffffffffffffffffffff1661172a565b915050613462565b8060010190506133c9565b505b919050565b6000613471613165565b15156134805760079050613698565b60008090505b600080549050811015613692576134bc6000828154811015156134a557fe5b90600052602060002090600602016000018461369d565b1561368757600080828154811015156134d157fe5b906000526020600020906006020160040160009054906101000a900473ffffffffffffffffffffffffffffffffffffffff16905060006001830190505b6000805490508110156136595760008381548110151561352a57fe5b906000526020600020906006020160006001850381548110151561354a57fe5b90600052602060002090600602016000820181600001908054600181600116156101000203166002900461357f9291906138d6565b50600182018160010190805460018160011615610100020316600290046135a79291906138d6565b5060028201548160020155600382015481600301556004820160009054906101000a900473ffffffffffffffffffffffffffffffffffffffff168160040160006101000a81548173ffffffffffffffffffffffffffffffffffffffff021916908373ffffffffffffffffffffffffffffffffffffffff1602179055506005820181600501908054600181600116156101000203166002900461364a9291906138d6565b5090505080600101905061350e565b50600080548091906001900361366f9190613824565b5061367b816000612202565b50600092505050613698565b806001019050613486565b50600190505b919050565b60008083905060608390508051828054600181600116156101000203166002900490501415156136d25760009250505061381e565b60008090505b8280546001816001161561010002031660029004905081101561381657818181518110151561370357fe5b9060200101517f010000000000000000000000000000000000000000000000000000000000000090047f0100000000000000000000000000000000000000000000000000000000000000027effffffffffffffffffffffffffffffffffffffffffffffffffffffffffffff19168382815460018160011615610100020316600290048110151561378f57fe5b8154600116156137ae5790600052602060002090602091828204019190065b9054901a7f0100000000000000000000000000000000000000000000000000000000000000027effffffffffffffffffffffffffffffffffffffffffffffffffffffffffffff1916141515613809576000935050505061381e565b80806001019150506136d8565b506001925050505b92915050565b815481835581811115613851576006028160060283600052602060002091820191016138509190613a41565b5b505050565b828054600181600116156101000203166002900490600052602060002090601f016020900481019282601f1061389757805160ff19168380011785556138c5565b828001600101855582156138c5579182015b828111156138c45782518255916020019190600101906138a9565b5b5090506138d29190613ac7565b5090565b828054600181600116156101000203166002900490600052602060002090601f016020900481019282601f1061390f578054855561394c565b8280016001018555821561394c57600052602060002091601f016020900482015b8281111561394b578254825591600101919060010190613930565b5b5090506139599190613ac7565b5090565b81548183558181111561398a576002028160020283600052602060002091820191016139899190613aec565b5b505050565b8154818355818111156139bc576005028160050283600052602060002091820191016139bb9190613b56565b5b505050565b828054600181600116156101000203166002900490600052602060002090601f016020900481019282601f10613a0257805160ff1916838001178555613a30565b82800160010185558215613a30579182015b82811115613a2f578251825591602001919060010190613a14565b5b509050613a3d9190613ac7565b5090565b613ac491905b80821115613ac05760008082016000613a609190613bcc565b600182016000613a709190613bcc565b600282016000905560038201600090556004820160006101000a81549073ffffffffffffffffffffffffffffffffffffffff0219169055600582016000613ab79190613bcc565b50600601613a47565b5090565b90565b613ae991905b80821115613ae5576000816000905550600101613acd565b5090565b90565b613b5391905b80821115613b4f5760008082016000613b0b9190613bcc565b6001820160006101000a81549073ffffffffffffffffffffffffffffffffffffffff02191690556001820160146101000a81549060ff021916905550600201613af2565b5090565b90565b613bc991905b80821115613bc55760008082016000613b759190613bcc565b6001820160006101000a81549073ffffffffffffffffffffffffffffffffffffffff021916905560028201600090556003820160009055600482016000613bbc9190613bcc565b50600501613b5c565b5090565b90565b50805460018160011615610100020316600290046000825580601f10613bf25750613c11565b601f016020900490600052602060002090810190613c109190613ac7565b5b5056fea165627a7a72305820790a2987acd5d86aa5188168af190d14c055d34499f41054c9399b4102bc42a80029",
  "source": "pragma solidity >=0.4.4;\n\ncontract kyc {\n\n    //  Struct customer\n    //  uname - username of the customer\n    //  dataHash - customer data\n    //  rating - rating given to customer given based on regularity\n    //  upvotes - number of upvotes recieved from banks\n    //  bank - address of bank that validated the customer account\n\n    struct Customer {\n        string uname;\n        string dataHash;\n        uint rating;\n        uint upvotes;\n        address bank;\n        string password;\n    }\n\n    //  Struct Organisation\n    //  name - name of the bank/organisation\n    //  ethAddress - ethereum address of the bank/organisation\n    //  rating - rating based on number of valid/invalid verified accounts\n    //  KYC_count - number of KYCs verified by the bank/organisation\n\n    struct Organisation {\n        string name;\n        address ethAddress;\n        uint rating;\n        uint KYC_count;\n        string regNumber;\n    }\n\n    struct Request {\n        string uname;\n        address bankAddress;\n        bool isAllowed;\n    }\n\n    //  list of all customers\n\n    Customer[] allCustomers;\n\n    //  list of all Banks/Organisations\n\n    Organisation[] allOrgs;\n\n\n    Request[] allRequests;\n\n    function ifAllowed(string memory Uname, address bankAddress) public payable returns(bool) {\n        for(uint i = 0; i < allRequests.length; ++i) {\n            if(stringsEqual(allRequests[i].uname, Uname) && allRequests[i].bankAddress == bankAddress && allRequests[i].isAllowed) {\n                return true;\n            }\n        }\n        return false;\n    }\n\n    function getBankRequests(string memory Uname, uint ind) public payable returns(address) {\n       /* uint j = 0;\n        for(uint i=0;i<allRequests.length;++i) {\n            if(stringsEqual(allRequests[i].uname, Uname) && j == ind && allRequests[i].isAllowed == false) {\n                return allRequests[i].bankAddress;\n            }\n            j ++;\n        }\n        return 0x14e041521a40e32ed88b22c0f32469f5406d757a;*/\n\n        if(stringsEqual(allRequests[ind].uname, Uname)  && allRequests[ind].isAllowed == false) {\n                return allRequests[ind].bankAddress;\n        }\n        return 0x14E041521a40e32ED88b22C0F32469F5406d757A;\n    }\n\n\n\n    function addRequest(string memory Uname, address bankAddress) public payable {\n        for(uint i = 0; i < allRequests.length; ++ i) {\n            if(stringsEqual(allRequests[i].uname, Uname) && allRequests[i].bankAddress == bankAddress) {\n                return;\n            }\n        }\n        allRequests.length ++;\n        allRequests[allRequests.length - 1] = Request(Uname, bankAddress, false);\n    }\n\n    function allowBank(string memory Uname, address bankAddress, bool ifallowed) public payable {\n        for(uint i = 0; i < allRequests.length; ++ i) {\n            if(stringsEqual(allRequests[i].uname, Uname) && allRequests[i].bankAddress == bankAddress) {\n                if(ifallowed) {\n                    allRequests[i].isAllowed = true;\n\n                } else {\n                    for(uint j=i;j<allRequests.length-2; ++j) {\n                        allRequests[i] = allRequests[i+1];\n                    }\n                    allRequests.length --;\n                }\n                return;\n            }\n        }\n    }\n\n    //   internal function to compare strings\n    \n    function stringsEqual(string storage _a, string memory _b) internal view returns (bool) {\n        bytes storage a = bytes(_a);\n        bytes memory b = bytes(_b);\n        if (a.length != b.length)\n            return false;\n        // @todo unroll this loop\n        for (uint i = 0; i < a.length; i ++)\n        {\n            if (a[i] != b[i])\n                return false;\n        }\n        return true;\n    }\n\n    //  function to check access rights of transaction request sender\n\n    function isPartOfOrg() public payable returns(bool) {\n        for(uint i = 0; i < allOrgs.length; ++ i) {\n            if(allOrgs[i].ethAddress == msg.sender)\n                return true;\n        }\n        return false;\n    }\n\n    //  function that adds an organisation to the network\n    //  returns 0 if successfull\n    //  returns 7 if no access rights to transaction request sender\n    //  no check on access rights if network strength in zero\n\n    function addBank(string memory uname, address eth, string memory regNum) public payable returns(uint) {\n        if(allOrgs.length == 0 || isPartOfOrg()) {\n            allOrgs.length ++;\n            allOrgs[allOrgs.length - 1] = Organisation(uname, eth, 200, 0, regNum);\n            return 0;\n        }\n\n        return 7;\n    }\n\n    //  function that removes an organisation from the network\n    //  returns 0 if successful\n    //  returns 7 if no access rights to transaction request sender\n    //  returns 1 if organisation to be removed not part of network\n\n    function removeBank(address eth) public payable returns(uint) {\n        if(!isPartOfOrg())\n            return 7;\n        for(uint i = 0; i < allOrgs.length; ++ i) {\n            if(allOrgs[i].ethAddress == eth) {\n                for(uint j = i+1;j < allOrgs.length; ++ j) {\n                    allOrgs[i-1] = allOrgs[i];\n                }\n                allOrgs.length --;\n                return 0;\n            }\n        }\n        return 1;\n    }\n\n    //  function to add a customer profile to the database\n    //  returns 0 if successful\n    //  returns 7 if no access rights to transaction request sender\n    //  returns 1 if size limit of the database is reached\n    //  returns 2 if customer already in network\n\n    function addCustomer(string memory Uname, string memory DataHash) public payable returns(uint) {\n        if(!isPartOfOrg())\n            return 7;\n        //  throw error if username already in use\n        for(uint i = 0;i < allCustomers.length; ++ i) {\n            if(stringsEqual(allCustomers[i].uname, Uname))\n                return 2;\n        }\n        allCustomers.length ++;\n        //  throw error if there is overflow in uint\n        if(allCustomers.length < 1)\n            return 1;\n        allCustomers[allCustomers.length-1] = Customer(Uname, DataHash, 100, 0, msg.sender, \"null\");\n        updateRating(msg.sender,true);\n        return 0;\n    }\n\n    //  function to remove fraudulent customer profile from the database\n    //  returns 0 if successful\n    //  returns 7 if no access rights to transaction request sender\n    //  returns 1 if customer profile not in database\n\n    function removeCustomer(string memory Uname) public payable returns(uint) {\n        if(!isPartOfOrg())\n            return 7;\n        for(uint i = 0; i < allCustomers.length; ++ i) {\n            if(stringsEqual(allCustomers[i].uname, Uname)) {\n                address a = allCustomers[i].bank;\n                for(uint j = i+1;j < allCustomers.length; ++ j) {\n                    allCustomers[i-1] = allCustomers[i];\n                }\n                allCustomers.length --;\n                updateRating(a,false);\n                //  updateRating(msg.sender, true);\n                return 0;\n            }\n        }\n        //  throw error if uname not found\n        return 1;\n    }\n\n    //  function to modify a customer profile in database\n    //  returns 0 if successful\n    //  returns 7 if no access rights to transaction request sender\n    //  returns 1 if customer profile not in database\n\n    function modifyCustomer(string memory Uname,string memory DataHash) public payable returns(uint) {\n        if(!isPartOfOrg())\n            return 7;\n        for(uint i = 0; i < allCustomers.length; ++ i) {\n            if(stringsEqual(allCustomers[i].uname, Uname)) {\n                allCustomers[i].dataHash = DataHash;\n                allCustomers[i].bank = msg.sender;\n                return 0;\n            }\n        }\n        //  throw error if uname not found\n        return 1;\n    }\n\n    // function to return customer profile data\n\n    function viewCustomer(string memory Uname) public payable returns(string memory) {\n        if(!isPartOfOrg())\n            return \"Access denied!\";\n        for(uint i = 0; i < allCustomers.length; ++ i) {\n            if(stringsEqual(allCustomers[i].uname, Uname)) {\n                return allCustomers[i].dataHash;\n            }\n        }\n        return \"Customer not found in database!\";\n    }\n\n    //  function to modify customer rating\n\n    function updateRatingCustomer(string memory Uname, bool ifIncrease) public payable returns(uint) {\n        for(uint i = 0; i < allCustomers.length; ++ i) {\n            if(stringsEqual(allCustomers[i].uname, Uname)) {\n                //update rating\n                if(ifIncrease) {\n                    allCustomers[i].upvotes ++;\n                    allCustomers[i].rating += 100/(allCustomers[i].upvotes);\n                    if(allCustomers[i].rating > 500) {\n                        allCustomers[i].rating = 500;\n                    }\n                }\n                else {\n                    allCustomers[i].upvotes --;\n                    allCustomers[i].rating -= 100/(allCustomers[i].upvotes + 1);\n                    if(allCustomers[i].rating < 0) {\n                        allCustomers[i].rating = 0;\n                    }\n                }\n                return 0;\n            }\n        }\n        //  throw error if bank not found\n        return 1;\n    }\n\n    //  function to update organisation rating\n    //  bool true indicates a succesfull addition of KYC profile\n    //  false indicates detection of a fraudulent profile\n\n    function updateRating(address bankAddress,bool ifAdded) public payable returns(uint) {\n        for(uint i = 0; i < allOrgs.length; ++ i) {\n            if(allOrgs[i].ethAddress == bankAddress) {\n                //update rating\n                if(ifAdded) {\n                    allOrgs[i].KYC_count ++;\n                    allOrgs[i].rating += 100/(allOrgs[i].KYC_count);\n                    if(allOrgs[i].rating > 500) {\n                        allOrgs[i].rating = 500;\n                    }\n                }\n                else {\n                    //  allOrgs[i].KYC_count --;\n                    allOrgs[i].rating -= 100/(allOrgs[i].KYC_count + 1);\n                    if(allOrgs[i].rating < 0) {\n                        allOrgs[i].rating = 0;\n                    }\n                }\n                return 0;\n            }\n        }\n        //  throw error if bank not found\n        return 1;\n    }\n\n    //  function to validate bank log in\n    //  returns null if username or password not correct\n    //  returns bank name if correct\n    function checkBank(string memory Uname, address password) public payable returns(string memory) {\n        for(uint i = 0; i < allOrgs.length; ++ i) {\n            if(allOrgs[i].ethAddress == password && stringsEqual(allOrgs[i].name, Uname)) {\n                return \"0\";\n            }\n        }\n        return \"null\";\n    }\n\n    function checkCustomer(string memory Uname, string memory password) public payable returns(bool) {\n        for(uint i = 0; i < allCustomers.length; ++ i) {\n            if(stringsEqual(allCustomers[i].uname, Uname) && stringsEqual(allCustomers[i].password, password)) {\n                return true;\n            }\n            if(stringsEqual(allCustomers[i].uname, Uname)) {\n                return false;\n            }\n        }\n        return false;\n    }\n\n    function setPassword(string memory Uname, string memory password) public payable returns(bool) {\n        for(uint i=0;i < allCustomers.length; ++ i) {\n            if(stringsEqual(allCustomers[i].uname, Uname) && stringsEqual(allCustomers[i].password, \"null\")) {\n                allCustomers[i].password = password;\n                return true;\n            }\n        }\n        return false;\n    }\n    // All getter functions\n\n    function getBankName(address ethAcc) public payable returns(string memory) {\n        for(uint i = 0; i < allOrgs.length; ++ i) {\n            if(allOrgs[i].ethAddress == ethAcc) {\n                return allOrgs[i].name;\n            }\n        }\n        return \"null\";\n    }\n\n    function getBankEth(string memory uname) public payable returns(address) {\n        for(uint i = 0; i < allOrgs.length; ++ i) {\n            if(stringsEqual(allOrgs[i].name, uname)) {\n                return allOrgs[i].ethAddress;\n            }\n        }\n        return 0x14E041521a40e32ED88b22C0F32469F5406d757A;\n    }\n\n    function getCustomerBankName(string memory Uname) public payable returns(string memory) {\n        for(uint i = 0;i < allCustomers.length; ++ i) {\n            if(stringsEqual(allCustomers[i].uname, Uname)) {\n                return getBankName(allCustomers[i].bank);\n            }\n        }\n    }\n\n    function getBankReg(address ethAcc) public payable returns(string memory) {\n        for(uint i = 0; i < allOrgs.length; ++ i) {\n            if(allOrgs[i].ethAddress == ethAcc) {\n                return allOrgs[i].regNumber;\n            }\n        }\n        return \"null\";\n    }\n\n    function getBankKYC(address ethAcc) public payable returns(uint) {\n        for(uint i = 0; i < allOrgs.length; ++ i) {\n            if(allOrgs[i].ethAddress == ethAcc) {\n                return allOrgs[i].KYC_count;\n            }\n        }\n        return 0;\n    }\n\n    function getBankRating(address ethAcc) public payable returns(uint) {\n        for(uint i = 0; i < allOrgs.length; ++ i) {\n            if(allOrgs[i].ethAddress == ethAcc) {\n                return allOrgs[i].rating;\n            }\n        }\n        return 0;\n    }\n\n    function getCustomerBankRating(string memory Uname) public payable returns(uint) {\n        for(uint i = 0;i < allCustomers.length; ++ i) {\n            if(stringsEqual(allCustomers[i].uname, Uname)) {\n                return getBankRating(allCustomers[i].bank);\n            }\n        }\n    }\n\n    function getCustomerRating(string memory Uname) public payable returns(uint) {\n        for(uint i = 0; i < allCustomers.length; ++ i) {\n            if(stringsEqual(allCustomers[i].uname, Uname)) {\n                return allCustomers[i].rating;\n            }\n        }\n        return 0;\n    }\n\n}",
  "sourcePath": "C:/blockChain/kyc/kali/contracts/kyc.sol",
  "compiler": {
    "name": "solc",
    "version": "0.5.0+commit.1d4f565a.Emscripten.clang"
  },
  "schemaVersion": "3.0.1",
  "updatedAt": "2022-05-04T11:46:36.518Z",
  "devdoc": {
    "methods": {}
  },
  "userdoc": {
    "methods": {}
  }
}